{
  "contractName": "Nomad",
  "abi": [
    {
      "constant": true,
      "inputs": [],
      "name": "totalItems",
      "outputs": [
        {
          "name": "",
          "type": "uint256"
        }
      ],
      "payable": false,
      "stateMutability": "view",
      "type": "function"
    },
    {
      "constant": true,
      "inputs": [
        {
          "name": "",
          "type": "uint256"
        }
      ],
      "name": "worlds",
      "outputs": [
        {
          "name": "worldAddress",
          "type": "address"
        },
        {
          "name": "numItems",
          "type": "uint256"
        },
        {
          "name": "name",
          "type": "string"
        }
      ],
      "payable": false,
      "stateMutability": "view",
      "type": "function"
    },
    {
      "constant": true,
      "inputs": [
        {
          "name": "",
          "type": "uint256"
        }
      ],
      "name": "nomadItems",
      "outputs": [
        {
          "name": "name",
          "type": "string"
        },
        {
          "name": "attack",
          "type": "uint256"
        },
        {
          "name": "quantity",
          "type": "uint256"
        }
      ],
      "payable": false,
      "stateMutability": "view",
      "type": "function"
    },
    {
      "constant": true,
      "inputs": [],
      "name": "owner",
      "outputs": [
        {
          "name": "",
          "type": "address"
        }
      ],
      "payable": false,
      "stateMutability": "view",
      "type": "function"
    },
    {
      "constant": true,
      "inputs": [
        {
          "name": "",
          "type": "uint256"
        }
      ],
      "name": "itemInWorld",
      "outputs": [
        {
          "name": "",
          "type": "uint256"
        }
      ],
      "payable": false,
      "stateMutability": "view",
      "type": "function"
    },
    {
      "inputs": [
        {
          "name": "_NomadAssetAddress",
          "type": "address"
        }
      ],
      "payable": false,
      "stateMutability": "nonpayable",
      "type": "constructor"
    },
    {
      "constant": false,
      "inputs": [
        {
          "name": "_name",
          "type": "string"
        },
        {
          "name": "_worldAddress",
          "type": "address"
        }
      ],
      "name": "createWorld",
      "outputs": [],
      "payable": false,
      "stateMutability": "nonpayable",
      "type": "function"
    },
    {
      "constant": false,
      "inputs": [
        {
          "name": "_worldIdx",
          "type": "uint256"
        },
        {
          "name": "_name",
          "type": "string"
        },
        {
          "name": "_quantity",
          "type": "uint256"
        },
        {
          "name": "_attack",
          "type": "uint256"
        }
      ],
      "name": "vote",
      "outputs": [],
      "payable": false,
      "stateMutability": "nonpayable",
      "type": "function"
    },
    {
      "constant": true,
      "inputs": [
        {
          "name": "_worldIdx",
          "type": "uint256"
        },
        {
          "name": "_itemId",
          "type": "uint256"
        }
      ],
      "name": "findItem",
      "outputs": [
        {
          "name": "_name",
          "type": "string"
        },
        {
          "name": "_quantity",
          "type": "uint256"
        }
      ],
      "payable": false,
      "stateMutability": "view",
      "type": "function"
    },
    {
      "constant": true,
      "inputs": [
        {
          "name": "_worldIdx",
          "type": "uint256"
        }
      ],
      "name": "findWorld",
      "outputs": [
        {
          "name": "_worldAddress",
          "type": "address"
        },
        {
          "name": "_numItems",
          "type": "uint256"
        },
        {
          "name": "_name",
          "type": "string"
        }
      ],
      "payable": false,
      "stateMutability": "view",
      "type": "function"
    }
  ],
  "bytecode": "0x608060405234801561001057600080fd5b50604051602080610e4a8339810180604052810190808051906020019092919050505033600160006101000a81548173ffffffffffffffffffffffffffffffffffffffff021916908373ffffffffffffffffffffffffffffffffffffffff160217905550806000806101000a81548173ffffffffffffffffffffffffffffffffffffffff021916908373ffffffffffffffffffffffffffffffffffffffff16021790555050610d86806100c46000396000f300608060405260043610610099576000357c0100000000000000000000000000000000000000000000000000000000900463ffffffff1680632799276d1461009e57806337d786b5146100c95780633a1956ce146101a95780634dab62e71461028957806357b07191146103125780637a65ef6f146103995780638da5cb5b1461044d578063a1348083146104a4578063e51b10821461055b575b600080fd5b3480156100aa57600080fd5b506100b361059c565b6040518082815260200191505060405180910390f35b3480156100d557600080fd5b506100f4600480360381019080803590602001909291905050506105a2565b604051808473ffffffffffffffffffffffffffffffffffffffff1673ffffffffffffffffffffffffffffffffffffffff16815260200183815260200180602001828103825283818151815260200191508051906020019080838360005b8381101561016c578082015181840152602081019050610151565b50505050905090810190601f1680156101995780820380516001836020036101000a031916815260200191505b5094505050505060405180910390f35b3480156101b557600080fd5b506101d46004803603810190808035906020019092919050505061069d565b604051808473ffffffffffffffffffffffffffffffffffffffff1673ffffffffffffffffffffffffffffffffffffffff16815260200183815260200180602001828103825283818151815260200191508051906020019080838360005b8381101561024c578082015181840152602081019050610231565b50505050905090810190601f1680156102795780820380516001836020036101000a031916815260200191505b5094505050505060405180910390f35b34801561029557600080fd5b50610310600480360381019080803590602001908201803590602001908080601f0160208091040260200160405190810160405280939291908181526020018383808284378201915050505050509192919290803573ffffffffffffffffffffffffffffffffffffffff16906020019092919050505061078e565b005b34801561031e57600080fd5b5061039760048036038101908080359060200190929190803590602001908201803590602001908080601f01602080910402602001604051908101604052809392919081815260200183838082843782019150505050505091929192908035906020019092919080359060200190929190505050610863565b005b3480156103a557600080fd5b506103c460048036038101908080359060200190929190505050610acf565b6040518080602001848152602001838152602001828103825285818151815260200191508051906020019080838360005b838110156104105780820151818401526020810190506103f5565b50505050905090810190601f16801561043d5780820380516001836020036101000a031916815260200191505b5094505050505060405180910390f35b34801561045957600080fd5b50610462610b91565b604051808273ffffffffffffffffffffffffffffffffffffffff1673ffffffffffffffffffffffffffffffffffffffff16815260200191505060405180910390f35b3480156104b057600080fd5b506104d96004803603810190808035906020019092919080359060200190929190505050610bb7565b6040518080602001838152602001828103825284818151815260200191508051906020019080838360005b8381101561051f578082015181840152602081019050610504565b50505050905090810190601f16801561054c5780820380516001836020036101000a031916815260200191505b50935050505060405180910390f35b34801561056757600080fd5b5061058660048036038101908080359060200190929190505050610c9d565b6040518082815260200191505060405180910390f35b60025481565b600080606060006005858154811015156105b857fe5b906000526020600020906004020190508060010160009054906101000a900473ffffffffffffffffffffffffffffffffffffffff16935080600201549250806003018054600181600116156101000203166002900480601f01602080910402602001604051908101604052809291908181526020018280546001816001161561010002031660029004801561068e5780601f106106635761010080835404028352916020019161068e565b820191906000526020600020905b81548152906001019060200180831161067157829003601f168201915b50505050509150509193909250565b6005818154811015156106ac57fe5b90600052602060002090600402016000915090508060010160009054906101000a900473ffffffffffffffffffffffffffffffffffffffff1690806002015490806003018054600181600116156101000203166002900480601f0160208091040260200160405190810160405280929190818152602001828054600181600116156101000203166002900480156107845780601f1061075957610100808354040283529160200191610784565b820191906000526020600020905b81548152906001019060200180831161076757829003601f168201915b5050505050905083565b60056060604051908101604052808373ffffffffffffffffffffffffffffffffffffffff16815260200160008152602001848152509080600181540180825580915050906001820390600052602060002090600402016000909192909190915060008201518160010160006101000a81548173ffffffffffffffffffffffffffffffffffffffff021916908373ffffffffffffffffffffffffffffffffffffffff16021790555060208201518160020155604082015181600301908051906020019061085b929190610cb5565b505050505050565b600080600060058781548110151561087757fe5b90600052602060002090600402019250600191505b8482111515610ac657606060405190810160405280878152602001858152602001868152508360000160008560020154815260200190815260200160002060008201518160000190805190602001906108e6929190610cb5565b50602082015181600101556040820151816002015590505060016002540190506000809054906101000a900473ffffffffffffffffffffffffffffffffffffffff1673ffffffffffffffffffffffffffffffffffffffff1663f45a33a987898660010160009054906101000a900473ffffffffffffffffffffffffffffffffffffffff16856040518563ffffffff167c010000000000000000000000000000000000000000000000000000000002815260040180806020018581526020018473ffffffffffffffffffffffffffffffffffffffff1673ffffffffffffffffffffffffffffffffffffffff168152602001838152602001828103825286818151815260200191508051906020019080838360005b83811015610a145780820151818401526020810190506109f9565b50505050905090810190601f168015610a415780820380516001836020036101000a031916815260200191505b5095505050505050600060405180830381600087803b158015610a6357600080fd5b505af1158015610a77573d6000803e3d6000fd5b505050508660046000838152602001908152602001600020819055506002600081548092919060010191905055508260020160008154809291906001019190505550818060010192505061088c565b50505050505050565b6003602052806000526040600020600091509050806000018054600181600116156101000203166002900480601f016020809104026020016040519081016040528092919081815260200182805460018160011615610100020316600290048015610b7b5780601f10610b5057610100808354040283529160200191610b7b565b820191906000526020600020905b815481529060010190602001808311610b5e57829003601f168201915b5050505050908060010154908060020154905083565b600160009054906101000a900473ffffffffffffffffffffffffffffffffffffffff1681565b6060600080600585815481101515610bcb57fe5b906000526020600020906004020160000160008581526020019081526020016000209050806000018054600181600116156101000203166002900480601f016020809104026020016040519081016040528092919081815260200182805460018160011615610100020316600290048015610c875780601f10610c5c57610100808354040283529160200191610c87565b820191906000526020600020905b815481529060010190602001808311610c6a57829003601f168201915b5050505050925080600201549150509250929050565b60046020528060005260406000206000915090505481565b828054600181600116156101000203166002900490600052602060002090601f016020900481019282601f10610cf657805160ff1916838001178555610d24565b82800160010185558215610d24579182015b82811115610d23578251825591602001919060010190610d08565b5b509050610d319190610d35565b5090565b610d5791905b80821115610d53576000816000905550600101610d3b565b5090565b905600a165627a7a723058207466e436b4630ee30576d34a2d0ee55ef051de730869f0e8a25571b624ce90660029",
  "source": "pragma solidity ^0.4.18;\nimport \"./NomadAsset.sol\";\n\ncontract Nomad {\n  NomadAsset NomadAssetContract;\n  address public owner;\n  uint256 public totalItems;\n\n  // Points each item id directly to the item MetaData\n  mapping(uint256 => Item) public nomadItems;\n\n  mapping(uint256 => uint256) public itemInWorld;\n\n  // MetaData for the item\n  struct Item {\n    string name;\n    uint attack;\n    uint quantity;\n  }\n\n  struct World {\n    mapping(uint => Item) items;\n    address worldAddress;\n    uint numItems;\n    string name;\n  }\n\n  function Nomad(address _NomadAssetAddress) public {\n    // take in the ERC721 address\n    owner = msg.sender;\n    NomadAssetContract = NomadAsset(_NomadAssetAddress);\n  }\n\n  World[] public worlds;\n\n  function createWorld(string _name, address _worldAddress) public {\n    worlds.push(World({name: _name, numItems: 0, worldAddress: _worldAddress}));\n  }\n\n  function vote(uint _worldIdx, string _name, uint _quantity, uint _attack) public {\n    World storage world = worlds[_worldIdx];\n    for(uint i = 1; i <= _quantity; i ++) {\n        world.items[world.numItems] = Item(_name, _attack, _quantity); // <-- where we should plug in Cody's ERC721\n        uint itemId = totalItems + 1;\n        NomadAssetContract.createItem(_name, _worldIdx, world.worldAddress, itemId);\n        itemInWorld[itemId] = _worldIdx;\n        totalItems++;\n        world.numItems++;\n    }\n  }\n\n  function findItem(uint _worldIdx, uint _itemId) public view returns(string _name, uint _quantity) {\n    Item storage item = worlds[_worldIdx].items[_itemId];\n    _name = item.name;\n    _quantity = item.quantity;\n  }\n\n  function findWorld(uint _worldIdx) public view returns(address _worldAddress, uint _numItems, string _name) {\n      World storage world = worlds[_worldIdx];\n      _worldAddress = world.worldAddress;\n      _numItems = world.numItems;\n      _name = world.name;\n  }\n}\n",
  "sourcePath": "/home/cody/Desktop/Nomad/Nomad/truffle/contracts/Nomad.sol",
  "compiler": {
    "name": "solc",
    "version": "0.4.24+commit.e67f0147.Emscripten.clang"
  },
  "schemaVersion": "2.0.0",
  "updatedAt": "2018-10-07T07:42:23.494Z"
}